:020000040800F2
:10000000B01100200101000869200008E115000876
:1000100065200008690C0008273F00080000000068
:10002000000000000000000000000000593500083A
:10003000DD0F000800000000E93300081901000886
:100040001B0100081B0100081B0100081B01000820
:100050001B0100081B0100081B0100081B01000810
:100060001B0100081B0100081B0100081B01000800
:100070001B0100081B0100081B0100081B010008F0
:100080001B0100081B0100081B0100081B010008E0
:100090001B0100081B0100081B0100081B010008D0
:1000A0001B0100081B0100081B0100081B010008C0
:1000B0000D390008CD390008493A00081B01000835
:1000C0001B0100081B0100081B0100081B010008A0
:1000D0001B010008853C00080D3D00081B010008BD
:1000E0001B0100081B0100081B010008DFF80CD0F1
:1000F00000F0A8FB0048004741440008B011002070
:100100000648804706480047FEE7FEE7FEE7FEE7B1
:10011000FEE7FEE7FEE7FEE7FEE7FEE76D360008D6
:10012000ED00000840EA01039B0703D009E008C97D
:10013000121F08C0042AFAD203E011F8013B00F8AC
:10014000013B521EF9D27047D2B201E000F8012BF8
:10015000491EFBD270470022F6E710B513460A4647
:1001600004461946FFF7F0FF204610BD421E12F864
:10017000013F002BFBD111F8013B02F8013B002BA2
:10018000F9D1704730B505462A460B4612F8010BE7
:1001900013F8014B08B1A042F8D01CB1002802D0DE
:1001A0006D1CF1E7284630BDCAB2401E10F8011F91
:1001B0008A4202D00029F9D100207047421C10F871
:1001C000011B0029FBD1801A704710B5044600E0DE
:1001D000401C0378002BFBD100E0401C521E04D3CE
:1001E00011F8013B0370002BF7D10021017020466C
:1001F00010BD034611F8012B00F8012B002AF9D19C
:100200001846704770B5064603F080FF046805463F
:100210000A220021304600F048FA2C6070BD2DE91A
:10022000FE4F804681EA0300C00F0C46009021F08B
:10023000004123F00045B8EB0200A94105D2404639
:10024000214690461C460B46024623F000401043D0
:1002500047D0270DC7F30A00C3F30A510290401A92
:10026000019040286BDAC3F3130040F4801B009820
:10027000924620B10023D2EB030A63EB0B0B0198EB
:100280005946C0F14002504600F0DEF906460D46E0
:1002900050465946019A00F0F6F910EB080061410A
:1002A000002487EA115284EAE7731A4340D0009A87
:1002B00062B3019A012A4FEA075215DC001B61EB79
:1002C00002014FF0004202EA0752CDE90042001C51
:1002D00041F5801132462B4600F065FA03B0BDE8C7
:1002E000F08F40462146F9E7001B61EB0201001C3C
:1002F00041F5801300185B412018A2F5001747EB69
:10030000030140EAD570B6196D4111E06D084FEA5E
:10031000360645EAC0754FEA0752001B61EB020141
:10032000001C41F5801149084FEA30000019514185
:1003300032462B4603B0BDE8F04F00F025BA0098D6
:10034000012240000023D0EB020263EBE07300982F
:1003500021464FEAE074B8EB000061EB0401E9E7E5
:1003600083F000435BE781F0004158E72DE9FE4F41
:1003700081EA030404F0004421F0004100944FF0AE
:10038000000B23F0004350EA01045ED052EA03045C
:100390005BD0C3F30A54C1F30A552C44A4F2F334DE
:1003A0000194A0FB0254C1F3130141F48011C3F383
:1003B000130343F4801301FB024400FB034E840A41
:1003C000970A44EA815447EA8357A4FB07680295D9
:1003D0008D0A05FB07854FEA932C04FB0C54270577
:1003E000029D4FEA065847EA1637B5EB08056EEB53
:1003F000070C870E920E47EA811742EA8312A7FB89
:100400000201B6EB0B0164EB00042B0D43EA0C3345
:100410005E1844EB1C50DA465146E7FB0201C5F377
:1004200013044FEA0B3343EA14534FEA0432019C9E
:1004300043EA0603A4F10C040294009CCDE900B445
:1004400000F0B1F903B0BDE8F08F00200146F9E7F4
:100450002DE9F04D81EA030404F0004B21F0004542
:1004600014464FF0000A23F0004150EA050220D064
:1004700054EA01021DD0C5F30A570246C5F313031F
:10048000C1F31300C1F30A5640F4801543F48013FE
:10049000A7EB0608101BD64608F2FD3873EB0500E3
:1004A00002D308F1010801E092185B41B8F1000F96
:1004B00003DA00200146BDE8F08D00204FF48011E2
:1004C000064684460EE0171B73EB050705D3121B87
:1004D00063EB050306434CEA010C49084FEA300080
:1004E00092185B4150EA0107EDD152EA030012D0A5
:1004F00082EA040083EA0501084305D0101BAB41E2
:1005000006D20122002306E000224FF0004302E061
:100510006FF0010253101AEB06004CEB085110EB80
:100520000A0041EB0B01BDE8F04D00F02DB9C10F01
:1005300080EAE0700844CA079623002100F0F6B86C
:100540000EB540F2334102910021CDE900110A4677
:100550000B4600F028F903B000BDC1F30A5210B5F4
:10056000C1F3130140F2FF3341F480119A4201DAE2
:10057000002010BD40F233439A42A2F2334203DC22
:10058000524200F070F810BD904010BD00F00042E3
:1005900030F000400AD0C10D01F56071C0F31600C3
:1005A00042EA0151C208400711437047002001464A
:1005B0007047000030B5041E71F1000404DB4FF0F9
:1005C0000044404264EB0101141E73F1000405DB9A
:1005D0001C464FF00043524263EB04038B4208BFBA
:1005E000824230BD01F0004330B421F0004150EAB6
:1005F000010206D00A0DA2F56072C1F31301002AB0
:1006000002DC30BC00207047440F44EAC104C10042
:10061000E01830BC00EBC25000F07FB830B50B469C
:10062000014600202022012409E021FA02F59D4222
:1006300005D303FA02F5491B04FA02F52844151EF6
:10064000A2F10102F1DC30BD202A04DB203A00FADD
:1006500002F1002070479140C2F1200320FA03F319
:10066000194390407047202A04DB203A21FA02F017
:100670000021704721FA02F3D040C2F120029140DC
:10068000084319467047202A06DBCB17203A41FA67
:1006900002F043EAE07306E041FA02F3D040C2F10F
:1006A000200291400843194670472DE9F0479146D2
:1006B0000F4680460446002614F8015B2DB100F079
:1006C000D3F80068405DC007F6D12B2D02D02D2D48
:1006D00018D0641E4A463946204600F0C9F827B1B2
:1006E0003968A14201D1C7F8008071054FF00204BA
:1006F0000BD54042002803DD03F008FD0460A0078D
:10070000BDE8F08746F48066E4E70028F8DA03F0F5
:10071000FDFC04606FF00040F2E70029A8BF7047BD
:10072000401C490008BF20F00100704710B4B0FA27
:1007300080FC00FA0CF050EA010404BF10BC7047C2
:1007400049B1CCF1200421FA04F411FA0CF118BFDC
:10075000012121430843A3EB0C01CB1D4FEA0061AB
:100760004FEA102042BF002010BC704700EBC3507E
:1007700010440029A4BF10BC7047401C490008BFAA
:1007800020F0010010BC704710B5141E73F1000476
:1007900008DA401C41F1000192185B411A4301D173
:1007A00020F0010010BD2DE9F04D92469B4611B19D
:1007B000B1FA81F202E0B0FA80F220329046FFF7FF
:1007C00043FF04460F4640EA0A0041EA0B01534644
:1007D0005A46084313D0114653EA010019D0C8F114
:1007E00040025046FFF73FFF05460E465046594629
:1007F0004246FFF729FF084305D0012004E02046C8
:100800003946BDE8F08D0020054346EAE0762C43EA
:1008100037430A986305E40AA0EB08000022FD0AAA
:1008200044EA47540A3002D500200146E9E70105B1
:1008300010196941DDE9084500196941BDE8F04D2D
:10084000A2E70000064C074D06E0E06840F0010317
:1008500094E8070098471034AC42F6D3FFF74AFCFF
:10086000D0850008F085000800487047CC85000856
:100870002DE9F05F82460078002715468B460AF185
:100880000104B946302801D09DB113E014F8010BE2
:100890000127782803D0582801D045B10AE00DB1CE
:1008A000102D07D10027102514F8010B02E00825B0
:1008B00000E00A250026B0460EE005FB080005FB17
:1008C00006F1012701EB10461FFA80F8B6F5803FCC
:1008D00000D3B94614F8010B294600F018F8002897
:1008E000EBDABBF1000F05D00FB1641E00E05446F7
:1008F000CBF80040B9F1000F06D003F007FC02214D
:100900000160C81EBDE8F09F48EA0640FAE73A28B1
:1009100000D2303820F02002412A01D3A2F1370062
:10092000884201D34FF0FF30704770B58D1810F832
:10093000014B14F0030201D110F8012B231106D151
:1009400010F8013B03E010F8016B01F8016B521E37
:10095000F9D1ABB110F8012B04F00C048A1A0C2C5D
:1009600003D0A2EB84129B1C08E010F8014BA2EB11
:100970000422F8E712F8014B01F8014B5B1EF9D590
:10098000A942D4D3002070BD21B1826842F0010297
:10099000826003E0826822F001028260704721B128
:1009A000826842F48072826003E0826822F480727E
:1009B00082607047014600208A6802F004020AB192
:1009C000012000E000207047014600208A6802F004
:1009D00008020AB1012000E00020704730B502464D
:1009E0000020002350680F4C20400D790C6844EA29
:1009F00005242043506090680B4C2040D1E90254FC
:100A00002C434D7944EA450420439060D06A20F499
:100A100070000C7C641EE4B2234340EA0350D062B1
:100A200030BD0000FFFEF0FFFDF7F1FFF0B504461A
:100A30000D4600200021092D11DDE068A5F10A0610
:100A400006EB4607072606FA07F18843A5F10A06D2
:100A500006EB460603FA06F10843E0600CE0206965
:100A600005EB4507072606FA07F1884305EB45061F
:100A700003FA06F108432061072A0FDA606B561E5D
:100A800006EB86071F2606FA07F18843561E06EB7B
:100A9000860605FA06F10843606322E00D2A0FDAA4
:100AA000206BD61F06EB86071F2606FA07F1884340
:100AB000D61F06EB860605FA06F10843206310E010
:100AC000E06AA2F10D0606EB86071F2606FA07F17B
:100AD0008843A2F10D0606EB860605FA06F10843E7
:100AE000E062F0BD816841F008018160704721B18A
:100AF000826842F4A002826003E0826822F4A002CD
:100B000082607047816841F0040181607047000095
:100B100008B50121042002F0A5FC0121082002F003
:100B2000A1FC3020ADF8000000208DF803006946DC
:100B3000054800F051FC0220ADF80000694603486A
:100B400000F04AFC08BD000000080140000C014014
:100B500010B5FFF7DDFF00F001F810BD00B591B052
:100B60000121084602F04EFC0121480202F07AFC05
:100B70003A4800F06FF93A4806903A48079000204A
:100B800008901E20099000200A9080200B904000C1
:100B90000C9080000D9020200E9000020F900020FD
:100BA000109006A92D4800F0FBF901212B4800F018
:100BB00045F90020019001208DF808008DF809000A
:100BC0004FF4602003900020049003208DF814005F
:100BD00001A923484C38FFF701FF4FF4404002F0D1
:100BE00005FC0523012204211D484C38FFF71EFF98
:100BF0000523022219461A484C38FFF717FF052330
:100C00000322092116484C38FFF710FF0121144830
:100C10004C38FFF7C4FE012111484C38FFF7B4FEF1
:100C20000F484C38FFF75EFF00BF0D484C38FFF708
:100C3000CBFE0028F9D10A484C38FFF763FF00BF0C
:100C400007484C38FFF7B6FE0028F9D101210448C7
:100C50004C38FFF74CFF11B000BD00000800024007
:100C60004C240140F009002000BFFEE708B5012137
:100C7000042002F0F7FB2020ADF8000010208DF8D2
:100C8000030003208DF802006946024800F0A4FB2F
:100C900008BD00000008014010B500241548006898
:100CA00020F00F00134908600846006840F0080073
:100CB000086004E0601CC4B2012003F065FB0E482C
:100CC000006808B1642CF5DB642C01DB012010BD49
:100CD000002404E0601CC4B2012003F055FB064868
:100CE000006808B9642CF5DB642C01DB0120EEE719
:100CF0000020ECE7000C01400081214208B50121F1
:100D0000082002F0AFFB0120ADF8000010208DF8A4
:100D1000030003208DF802006946064800F05CFBE2
:100D20000121044800F0E5FB00F068F8FFF7B4FF8C
:100D300008BD0000000C014010B5002404E0601C58
:100D4000C4B2012003F020FB0D48006808B1642CF8
:100D5000F5DB002404E0601CC4B2012003F014FBA6
:100D60000748006808B9642CF5DB282003F00CFB69
:100D70000348006808B1012010BD0020FCE7000016
:100D80000081214270B50024002506E06006040EB3
:100D9000FFF7D2FF0443681CC5B2082DF6DB2046DE
:100DA00070BD7CB505460E4600F028F8FFF774FFCD
:100DB000F8B9002405E0FFF7E5FF0DF80400601C1A
:100DC000C4B2052CF7DB9DF800009DF80110084423
:100DD0009DF8021008449DF8031008449DF8041083
:100DE000884208D19DF8000030709DF802002870FC
:100DF00001E001207CBD0020FCE7000010B50C489C
:100E0000006820F00F000A4908600846006840F0BA
:100E100003000860002007490860142003F08EFAE0
:100E200001200549C1F880011E2003F0ADFA10BD74
:100E3000000C0140808121420080214221B10268E2
:100E400042F00102026004E002684FF6FE731A40AD
:100E50000260704701684FF6FE7211400160002188
:100E6000016041608160C1604B49884208D14A49B4
:100E70000839496841F00F01474A083A51608AE051
:100E800045491431884208D143490839496841F03D
:100E9000F001414A083A51607DE03F4928318842DB
:100EA00008D13D490839496841F470613A4A083A25
:100EB000516070E038493C31884208D136490839E0
:100EC000496841F47041344A083A516063E032495C
:100ED0005031884208D130490839496841F47021BD
:100EE0002D4A083A516056E02B496431884208D1B6
:100EF00029490839496841F47001274A083A516084
:100F000049E025497831884208D1234908394968A0
:100F100041F07061204A083A51603CE01F49884224
:100F200006D1011F096841F00F01021F116032E074
:100F30001A491431884208D11849091F096841F03B
:100F4000F001164A121F116025E014492831884229
:100F500008D11249091F096841F470610F4A121F34
:100F6000116018E00D493C31884208D10B49091F36
:100F7000096841F47041094A121F11600BE00749EA
:100F80005031884207D10549091F096841F4702191
:100F9000024A121F11607047080002400804024014
:100FA00010B50022026847F6F0739A430C6A8B680A
:100FB00023430C6923434C6923438C692343CC6945
:100FC00023434C6A23438C6A23431A430260CB6851
:100FD00043600B6883604B68C36010BD70470000BE
:100FE00010B580210348FFF7B6F8002002490880B9
:100FF00010BD0000300B00204E00002070B50546EB
:10100000002400BF00F0CEF980B90DA10E48FFF713
:10101000B9F8044654B13A212046FFF7C5F8044612
:1010200014B1641C204670BD0020FCE7052003F0CD
:1010300085F92800A5F101018DB2E3D100BFF2E7E7
:101040004950442C00000000300B002008B501215D
:10105000082002F007FA10208DF803000220ADF8F6
:10106000000003208DF802006946704800F0B4F9D2
:10107000002202216D4800F03EFAFA2003F05EF9EA
:1010800001220221694800F036FA4FF4FA7003F0A9
:1010900055F9FFF7A5FF022365A20121232001F0E6
:1010A000E5F807220321212001F0B6F808220321E8
:1010B000312001F0B1F809220321412001F0ACF800
:1010C0000A220321512001F0A7F800205A490860A4
:1010D00009E059480178062001F03EF956480068B9
:1010E000401C55490860544800680A28F1DB53A0A9
:1010F00002F0E8FF03E04FF4FA7003F01FF9C82292
:1011000050A151A000F004F90028F4D150A002F041
:10111000D9FF03E04FF4FA7003F010F9C82249A197
:101120004EA000F0F5F80028F4D10A2042490860EA
:1011300009E041480178062001F00EF93E480068B8
:10114000401C3D4908603C4800681428F1DB47A07A
:1011500002F0B8FF03E04FF4FA7003F0EFF8C82292
:1011600038A145A000F0D4F80028F4D146A002F040
:10117000A9FF03E04FF4FA7003F0E0F8C82244A19D
:1011800045A000F0C5F80028F4D114202A490860D1
:1011900009E029480178062001F0DEF826480068B9
:1011A000401C25490860244800681E28F1DB43A044
:1011B00002F088FF03E04FF4FA7003F0BFF8C82292
:1011C00041A143A000F0A4F80028F4D11E201A4940
:1011D000086009E018480178062001F0BDF81648BB
:1011E0000068401C14490860134800683328F1DB8C
:1011F00042A002F067FF07220321182001F00CF83B
:1012000008220321282001F007F8092203213820B1
:1012100001F002F80B220321482000F0FDFF0C2210
:101220000321582000F0F8FF08BD0000000C014029
:1012300045535038323636001A00002041540D0A0A
:10124000000000004F4B000041540D0A0D0000004B
:1012500043574D4F44450D0A0000000041542B43B5
:10126000574D4F44453D310D0A00000041542B437A
:1012700057444843500D0A0041542B4357444843B8
:10128000503D312C310D0A0043574A41500D0A00A0
:10129000474F54204950000041542B43574A415076
:1012A0003D22796577616E68616F222C22797768BB
:1012B000797768797768220D0A0000004349505316
:1012C000544152540D0A0000434F4E4E45435400C2
:1012D00041542B43495053544152543D225443509E
:1012E000222C223138332E3233302E34302E333903
:1012F000222C363030320D0A0000000045535038A1
:1013000032363620496E6974204F4B0D0A000000BA
:101310002DE9F04105460E4614462846FEF74EFFDD
:1013200087B23946284602F0A7FE0FE000F03AF8EF
:1013300048B931460948FEF725FF20B1FFF750FEB6
:101340000020BDE8F0810A2002F0F8FF2000A4F19F
:1013500001018CB2EAD10120F3E70000300B00203C
:1013600030B589B005460C46FFF73AFE224608A183
:1013700001A802F0B7FEC82209A101A8FFF7C8FF23
:1013800018B92146284602F077FE09B030BD0000AA
:1013900041542B43495053454E443D25640D0A00AA
:1013A0003E0000000A48008808B90120704708483C
:1013B000008808490988884203D100200449088030
:1013C000F4E703480088034908800120EEE70000A5
:1013D0004E000020500000202DE9F041024600257B
:1013E0000026002000230024002791F803C00CF001
:1013F0000F0591F803C00CF0100CBCF1000F03D0E6
:1014000091F802C04CEA050591F800C0BCF1000F4C
:1014100031D0146800202BE04FF0010C0CFA00F3DF
:10142000B1F800C00CEA03069E4220D183004FF0C1
:101430000F0C0CFA03F7BC4305FA03FC4CEA040456
:1014400091F803C0BCF1280F06D14FF0010C0CFA43
:1014500000FCC2F814C00AE091F803C0BCF1480FC8
:1014600005D14FF0010C0CFA00FCC2F810C0401C72
:101470000828D1D31460B1F800C0BCF1FF0F34DDEF
:10148000546800202EE000F1080C4FF0010808FA23
:101490000CF3B1F800C00CEA03069E4221D1830090
:1014A0004FF00F0C0CFA03F7BC4305FA03FC4CEAAF
:1014B000040491F803C0BCF1280F05D100F1080C19
:1014C00008FA0CF8C2F8148091F803C0BCF1480F78
:1014D00007D100F1080C4FF0010808FA0CF8C2F827
:1014E0001080401C0828CED35460BDE8F0814161D3
:1014F0007047016170470AB1016100E041617047C6
:1015000030B589B005460C460121084601F08AFF36
:101510000121042001F0A6FF0121082001F0A2FF13
:101520004FF40040ADF8200010208DF82300032078
:101530008DF8220008A92848FFF74EFF4FF400411C
:101540002548FFF7D6FF0220ADF8200028208DF8AF
:10155000230008A92148FFF73FFF02211F48FFF79A
:10156000C6FFADF81850ADF814400020ADF81A00D1
:10157000ADF8160005A94FF0804002F031FB0420C1
:10158000ADF804000020ADF806000120ADF8080019
:101590000020ADF80A00ADF80C0001A94FF0804022
:1015A00002F084FA1C208DF8100002208DF8110042
:1015B00000208DF8120001208DF8130004A800F01F
:1015C00055FD01220521880702F0C6FA012188078E
:1015D00002F04BFA09B030BD000C01400008014098
:1015E00000BFFEE770B5024600240025002300205E
:1015F000958A138B1B0445EA030626F07F4404EA10
:1016000001068E4201D1012000E0002070BD21B111
:10161000028842F00102028004E002884FF6FE7365
:101620001A4002807047000000B585B001214805CE
:1016300001F0F8FE0121082001F014FFC020ADF8F0
:10164000000003208DF802001C208DF8030069467D
:101650001148FFF7C1FE114800F024F80020ADF852
:1016600008004BF6FF70ADF80A003020ADF80C0012
:101670004FF48060ADF80E000001ADF8100008488E
:10168000019001210548FFF7C2FF01A9034800F0BE
:101690005BF805B000BD0000000C014000540040A4
:1016A000801A060010B504460B48844209D1012176
:1016B000480501F0C7FE00214FF4001001F0C2FE02
:1016C00008E00121880501F0BDFE00214FF48000F3
:1016D00001F0B8FE10BD00000054004021B10288A6
:1016E00042F48072028004E002884FF6FF631A40E1
:1016F0000280704721B1028842F40072028004E047
:1017000002884FF6FF531A40028070470CB502461C
:10171000002000230193009300920B0F019321F00E
:101720007F41019B1BB1009B1433009303E0090C24
:10173000009B18330093009B1B680B400BB10120EA
:1017400000E000200CBD00002DE9F04385B0044608
:101750000D460026B1460427DFF8CC80A6884FF658
:10176000C0700640684601F08DFEDDF808802F4805
:10177000B8FBF0F01FFA80F946EA0906A680208837
:101780004FF6FE71084020800026294928688842CB
:101790000CD828684000B8FBF0F087B2042F00DABC
:1017A00004273E4309F10100208427E0E8884BF636
:1017B000FF71884206D1286800EB4000B8FBF0F0CA
:1017C00087B209E0286800EBC00101EB0010B8FB0C
:1017D000F0F087B247F48047C7F30B0008B947F031
:1017E000010747F4004006434FF4967009FB00F0F0
:1017F0004FF47A7190FBF1F0401C2084A68320887E
:1018000040F00100208026884FF6F5300640A88879
:101810006989084306432680A889298908432081CD
:1018200005B0BDE8F083000000127A0040420F00CE
:10183000A086010012B141F0010102E04FF6FE73F3
:1018400019400182704701827047000070B504465C
:101850000D4600BF4FF400311C48FFF757FF00282A
:10186000F8D101211948FFF739FF00BF184917487F
:10187000FFF7B8FE0028F9D0002278211348FFF7BF
:10188000D9FF00BF13491148FFF7ACFE0028F9D07B
:1018900021460E48FFF7D7FF00BF0E49891C0B48B1
:1018A000FFF7A0FE0028F8D029460848FFF7CBFF35
:1018B00000BF0849891C0548FFF794FE0028F8D0AE
:1018C00001210248FFF716FF70BD000000540040E0
:1018D000010003008200070008B50121102001F07B
:1018E000C1FD4FF40050ADF8000010208DF803004A
:1018F00003208DF8020069460348FFF76DFD0120C3
:101900000249086008BD000000100140B4012242F5
:1019100010B50446207B012802D1206802F068FD42
:10192000002020606060A060207310BD024600238C
:1019300001230DE002F07F000870D2092AB1087877
:1019400040F080000870491C01E0184670475B1C9D
:10195000042BEFDD4FF0FF30F8E770B504460E467C
:101960000025206898B901202073304602F0FCFE63
:1019700020602068E0B100206060A66003E00020E5
:10198000216848556D1CA068A842F8D810E00220D4
:10199000207303E00020216848556D1CA068A84210
:1019A000F8D800206060A068B04201D2002020601A
:1019B00070BD00002DE9FF5F07460D469046384692
:1019C000FEF7FCFB86B22846FEF7F8FB1FFA80FA0A
:1019D0004FF00009B01D02F0C7FE04461CB90120FB
:1019E00004B0BDE8F09FB11D2046FEF7B4FB12A085
:1019F000016821608088A080324639462046FEF783
:101A0000E4FB2846FEF7DAFB834601200021009123
:101A10005B462A46CDE90208019121460A2000F0E2
:101A20005FF910B94FF0000901E04FF001092046BD
:101A300002F0DEFC4846D3E724637273702F000087
:101A40002DE9FF4F83B082468B469146159C0025B9
:101A5000002002900F2701904846FEF7AFFB0FFAD7
:101A600080F8B9F1000F03D1012007B0BDE8F08F75
:101A700008F10200384487B2109808B145F0020519
:101A8000129878B145F004051298FEF797FBC0B2A2
:101A900002901398FEF792FB01460298001D08443D
:101AA000384487B2119820B1012804D0022808D107
:101AB00004E000BF07E045F00C0504E045F0140524
:101AC00001E00220D1E700BF149808B145F02405D9
:101AD000BAF1000F02D0BBF1000F01D10320C4E71F
:101AE00045F0C0055046FEF769FB06465846FEF72E
:101AF00065FB3044001D384487B239462046FFF765
:101B00002CFF206808B90420AFE739462068FEF7AB
:101B100022FB10216268501C606020688154D4E967
:101B20000023D118781FFFF701FF00B20190019840
:101B3000002804DA2046FFF7EBFE052095E76168F0
:101B400001980844606000216268501C6060206851
:101B5000815404216268501C6060206881544D21CA
:101B60006268501C60602068815451216268501C7A
:101B700060602068815454216268501C6060206855
:101B800081546268501C606020688154042162683E
:101B9000501C6060206881546168481C6060206847
:101BA00045540698010A6268501C606020688154A0
:101BB0000698C1B26268501C606020688154C8F306
:101BC00007216268501C6060206881546268501C64
:101BD0006060206800F80280D4E90012881842464C
:101BE0004946FEF7F2FA60684044606005F0040080
:101BF000B8B30026139808B938A013901298FEF7CE
:101C0000DDFA86B2310A6268501C60602068815437
:101C10006268501C606020688654D4E900128818FD
:101C200032461299FEF7D1FA60683044606013982A
:101C3000FEF7C4FA86B2310A6268501C6060206800
:101C400081546268501C606020688654D4E9001298
:101C5000881832461399FEF7B8FA6068304460601D
:101C600000BF05F08000C8B15046FEF7A7FA86B263
:101C7000310A6268501C6060206881546268501CA0
:101C8000606020688654D4E90012881832465146B4
:101C9000FEF79BFA60683044606000BF05F04000CA
:101CA000C8B15846FEF78AFA86B2310A6268501CFB
:101CB0006060206881546268501C606020688654AF
:101CC000D4E90012881832465946FEF77EFA606859
:101CD0003044606000BF0020C7E600000000000044
:101CE0002DE9FF4F83B0834690469946139C00260A
:101CF00000250020029001900027BBF1000F03D1C6
:101D0000012007B0BDE8F08F00250AE00498405D8F
:101D1000232803D00498405D2B2801D10220F0E74E
:101D20006D1C0498405D0028F0D147F030071198F1
:101D300008B147F0010705EB0900861C109820B197
:101D4000012804D002280AD105E000BF09E047F0CD
:101D50000207B61C05E047F00407B61C01E00320AB
:101D6000CFE700BF98F80000022822D14FF0000A08
:101D700000BF50460AF1010A18F800007D28F8D18A
:101D8000AAF1030A0AF1070002900298A9EB000ADF
:101D9000F01CA0EB0A012046FFF7DFFD206808B920
:101DA0000420AEE7F21CA2EB0A012068FEF7D3F98B
:101DB0000BE0F11C2046FFF7D0FD206808B9042095
:101DC0009FE7F11C2068FEF7C6F96168481C606057
:101DD00020684754D4E9000281183046FFF7A6FD79
:101DE00001900198002804DA2046FFF791FD0520B4
:101DF00087E76168019808446060C5F3072162685D
:101E0000501C6060206881546268501C60602068CB
:101E10008554D4E9001288182A460499FEF7D5F9AA
:101E2000606828446060109860B14FEA1B216268C6
:101E3000501C6060206881546268501C606020689B
:101E400000F802B0B8F1000F19D098F8000002288D
:101E50000BD1D4E9001288184146029AFEF762F9C4
:101E6000616802980844606009E0D4E900128818AB
:101E70004A464146FEF756F96068484460600020D3
:101E80003FE700002DE9FF4107460D4690461E46FC
:101E90000A9C01200021CDE90001EB1C0A460FA19C
:101EA000CDE902040A20FFF71BFF88B96168481CCE
:101EB000606020684654C5F307216268501C60606A
:101EC000206881546268501C60602068855403E07B
:101ED000012004B0BDE8F0810020FAE7246470001E
:101EE000F0B504460D46264601230020106000216F
:101EF00014E0775C07F07F07106807FB03001060B1
:101F0000705C00F0800008B9481CF0BDDB01B3F53F
:101F1000001F02D36FF00100F7E7491CA942E8DB7C
:101F20004FF0FF30F1E72DE9F84380460C461546A7
:101F30001E462F2108F10600FEF736F9074600205D
:101F4000009017B90120BDE8F8837F1C6A46042180
:101F500008F10100FFF7C4FF252002F005FC206016
:101F6000206808B90220EEE725212068FEF7F3F883
:101F7000242239462068FEF7D5F8243700982C38FB
:101F800030803188481C02F0EFFB2860286820B9B7
:101F9000206802F02DFA0320D5E73288511C28680A
:101FA000FEF7D9F8328839462868FEF7BBF80020DA
:101FB000C9E701464878022801D001207047887897
:101FC00010B18878012801D1C878F7E7FF20F5E73C
:101FD00001464878022801D001207047887820B94E
:101FE000C8780A2801D10020F7E70120F5E70000B2
:101FF000F8B50446FF2720780511012D01DB0E2DD1
:1020000001DD3846F8BD032D24D1002000906A463A
:102010000421601CFFF764FF2044461C009802283E
:1020200003D3207800F0010008B1FF20EAE77078C0
:10203000317840EA0120801C0099884201D9FF20B4
:10204000E0E706A1B01CFEF79DF808B10F2700E0FD
:10205000032700E02F463846D4E70000246372656A
:102060007100000000BFFEE77047000070B500215E
:1020700000230F22C47804B3154C246804F4E064F0
:10208000C4F5E064210AC1F10403CA40447804FAAB
:1020900003F184781440214309010E4C0678A155C0
:1020A000047804F01F050124AC4005786D11AD00E3
:1020B00005F1E025C5F8004109E0047804F01F05AA
:1020C0000124AC40044D0678761145F8264070BDD9
:1020D0000CED00E000E400E080E100E00249014393
:1020E000024A1160704700000000FA050CED00E0A4
:1020F00010B5002000F001F810BD70B506460024B0
:1021000015E004F1B001C8B201F0CEFF002001F0EB
:10211000CBFF102001F0C8FF002504E0304601F09D
:10212000CAFF681CC5B2802DF8DB601CC4B2082C45
:10213000E7DB70BD10B5FFF777FA642002F0FEF818
:10214000AE2001F0B1FF202001F0AEFF102001F021
:10215000ABFFB02001F0A8FFC82001F0A5FF0020D0
:1021600001F0A2FF102001F09FFF402001F09CFF32
:10217000812001F099FFFF2001F096FFA12001F0DE
:1021800093FFA62001F090FFA82001F08DFF3F20D3
:1021900001F08AFFA42001F087FFD32001F084FF23
:1021A000002001F081FFD52001F07EFFF02001F03A
:1021B0007BFFD92001F078FF222001F075FFDA20A3
:1021C00001F072FF122001F06FFFDB2001F06CFFC5
:1021D000202001F069FF8D2001F066FF142001F03E
:1021E00063FFAF2001F060FFFFF782FF10BD70B505
:1021F00004460D4605F1B001C8B201F055FF1021AB
:1022000041EA141001F050FF04F00F0141F0010009
:1022100001F04AFF70BD00002DE9F04180460E46F6
:10222000174600247D0131464046FFF7E0FF00BF1E
:1022300006E00D49485D01F03EFF6D1C601CC4B214
:10224000102CF6DB701CC1B24046FFF7D0FF002413
:1022500006E00549485D01F02EFF6D1C601CC4B20C
:10226000102CF6DBBDE8F081520000202DE9F0478C
:102270000646894617469A464FF000080024002576
:10228000BAF1010F03D0BAF1020F5ED125E020E0D0
:10229000785D203800F0FF087E2E04DD002609F16D
:1022A000010000F0FF0949463046FFF7A0FF002477
:1022B00009E008EB4801264A02EB4101085D01F004
:1022C000FAFE601CC4B2062CF3DBB01DC6B2681C5B
:1022D000C5B2785D0028DBD137E032E0785D203888
:1022E00000F0FF08782E04DD002609F1010000F05F
:1022F000FF0949463046FFF77AFF002407E004EB68
:102300000811144A505C01F0D6FE601CC4B2082CBF
:10231000F5DB09F10100C1B23046FFF768FF002488
:1023200008E004EB081108310A4A505C01F0C3FED2
:10233000601CC4B2082CF4DB06F10800C6B2681CAD
:10234000C5B2785D0028C9D100BF00BFBDE8F087E5
:102350004A480008724A00082DE9F04105468846BF
:102360000027B8F1330F80F05185DFE818F0330013
:102370004B0063007B009300AB00C300DB00F30065
:102380000B0123013B0153016B0183019B01B3014D
:10239000CB01E301FB0113022B026D0285029D02BA
:1023A000B502CD02E502FD0215032D0345035D03D1
:1023B00075038D03A503BD03D503ED0305041D04BB
:1023C00035044D048F04A704BF04D704EF040705A8
:1023D0001F0537052C4611E021460020FFF707FFB7
:1023E000002607E039467F1CF74A505C01F063FE87
:1023F000701CC6B2802EF5DB601CC4B2601B0228C4
:10240000EADB38E22C4611E021460020FFF7EFFE20
:10241000002607E039467F1CEC4A505C01F04BFE79
:10242000701CC6B2802EF5DB601CC4B2601B022893
:10243000EADBE6E72C4611E021460020FFF7D7FE55
:10244000002607E039467F1CE14A505C01F033FE6C
:10245000701CC6B2802EF5DB601CC4B2601B022863
:10246000EADBCEE72C4611E021460020FFF7BFFE55
:10247000002607E039467F1CD64A505C01F01BFE5F
:10248000701CC6B2802EF5DB601CC4B2601B022833
:10249000EADBB6E72C4611E021460020FFF7A7FE55
:1024A000002607E039467F1CCB4A505C01F003FE52
:1024B000701CC6B2802EF5DB601CC4B2601B022803
:1024C000EADB9EE72C4611E021460020FFF78FFE55
:1024D000002607E039467F1CC04A505C01F0EBFD46
:1024E000701CC6B2802EF5DB601CC4B2601B0228D3
:1024F000EADB86E72C4611E021460020FFF777FE55
:10250000002607E039467F1CB54A505C01F0D3FD38
:10251000701CC6B2802EF5DB601CC4B2601B0228A2
:10252000EADB6EE72C4611E021460020FFF75FFE54
:10253000002607E039467F1CAA4A505C01F0BBFD2B
:10254000701CC6B2802EF5DB601CC4B2601B022872
:10255000EADB56E72C4611E021460020FFF747FE54
:10256000002607E039467F1C9F4A505C01F0A3FD1E
:10257000701CC6B2802EF5DB601CC4B2601B022842
:10258000EADB3EE72C4611E021460020FFF72FFE54
:10259000002607E039467F1C944A505C01F08BFD11
:1025A000701CC6B2802EF5DB601CC4B2601B022812
:1025B000EADB26E72C4611E021460020FFF717FE54
:1025C000002607E039467F1C894A505C01F073FD04
:1025D000701CC6B2802EF5DB601CC4B2601B0228E2
:1025E000EADB0EE72C4611E021460020FFF7FFFD55
:1025F000002607E039467F1C7E4A505C01F05BFDF7
:10260000701CC6B2802EF5DB601CC4B2601B0228B1
:10261000EADBFBE32C4611E021460020FFF7E7FD53
:10262000002607E039467F1C734A505C01F043FDE9
:10263000701CC6B2802EF5DB601CC4B2601B022881
:10264000EADBE3E32C4611E021460020FFF7CFFD53
:10265000002607E039467F1C684A505C01F02BFDDC
:10266000701CC6B2802EF5DB601CC4B2601B022851
:10267000EADBCBE32C4611E021460020FFF7B7FD53
:10268000002607E039467F1C5D4A505C01F013FDCF
:10269000701CC6B2802EF5DB601CC4B2601B022821
:1026A000EADBB3E32C4611E021460020FFF79FFD53
:1026B000002607E039467F1C524A505C01F0FBFCC3
:1026C000701CC6B2802EF5DB601CC4B2601B0228F1
:1026D000EADB9BE32C4611E021460020FFF787FD53
:1026E000002607E039467F1C474A505C01F0E3FCB6
:1026F000701CC6B2802EF5DB601CC4B2601B0228C1
:10270000EADB83E32C4611E021460020FFF76FFD52
:10271000002607E039467F1C3C4A505C01F0CBFCA8
:10272000701CC6B2802EF5DB601CC4B2601B022890
:10273000EADB6BE32C4611E021460020FFF757FD52
:10274000002607E039467F1C314A505C01F0B3FC9B
:10275000701CC6B2802EF5DB601CC4B2601B022860
:10276000EADB53E32C4611E021460020FFF73FFD52
:10277000002607E039467F1C264A505C01F09BFC8E
:10278000701CC6B2802EF5DB601CC4B2601B022830
:10279000EADB3BE32C4611E021460020FFF727FD52
:1027A000002607E039467F1C1B4A505C01F083FC81
:1027B000701CC6B2802EF5DB601CC4B2601B022800
:1027C000EADB23E32C463BE062500008625100083C
:1027D0006252000862530008625400086255000803
:1027E00062560008625700086258000862590008E3
:1027F000625A0008625B0008625C0008625D0008C3
:10280000625E0008625F00086260000862610008A2
:1028100062620008626300086264000821460020CA
:10282000FFF7E5FC002607E039467F1CF74A505CBD
:1028300001F041FC701CC6B2802EF5DB601CC4B2F6
:10284000601B0228EADBE1E22C4611E02146002071
:10285000FFF7CDFC002607E039467F1CEC4A505CB0
:1028600001F029FC701CC6B2802EF5DB601CC4B2DE
:10287000601B0228EADBC9E22C4611E02146002059
:10288000FFF7B5FC002607E039467F1CE14A505CA3
:1028900001F011FC701CC6B2802EF5DB601CC4B2C6
:1028A000601B0228EADBB1E22C4611E02146002041
:1028B000FFF79DFC002607E039467F1CD64A505C96
:1028C00001F0F9FB701CC6B2802EF5DB601CC4B2AF
:1028D000601B0228EADB99E22C4611E02146002029
:1028E000FFF785FC002607E039467F1CCB4A505C89
:1028F00001F0E1FB701CC6B2802EF5DB601CC4B297
:10290000601B0228EADB81E22C4611E02146002010
:10291000FFF76DFC002607E039467F1CC04A505C7B
:1029200001F0C9FB701CC6B2802EF5DB601CC4B27E
:10293000601B0228EADB69E22C4611E021460020F8
:10294000FFF755FC002607E039467F1CB54A505C6E
:1029500001F0B1FB701CC6B2802EF5DB601CC4B266
:10296000601B0228EADB51E22C4611E021460020E0
:10297000FFF73DFC002607E039467F1CAA4A505C61
:1029800001F099FB701CC6B2802EF5DB601CC4B24E
:10299000601B0228EADB39E22C4611E021460020C8
:1029A000FFF725FC002607E039467F1C9F4A505C54
:1029B00001F081FB701CC6B2802EF5DB601CC4B236
:1029C000601B0228EADB21E22C4611E021460020B0
:1029D000FFF70DFC002607E039467F1C944A505C47
:1029E00001F069FB701CC6B2802EF5DB601CC4B21E
:1029F000601B0228EADB09E22C4611E02146002098
:102A0000FFF7F5FB002607E039467F1C894A505C3A
:102A100001F051FB701CC6B2802EF5DB601CC4B205
:102A2000601B0228EADBF1E12C4611E02146002080
:102A3000FFF7DDFB002607E039467F1C7E4A505C2D
:102A400001F039FB701CC6B2802EF5DB601CC4B2ED
:102A5000601B0228EADBD9E12C4611E02146002068
:102A6000FFF7C5FB002607E039467F1C734A505C20
:102A700001F021FB701CC6B2802EF5DB601CC4B2D5
:102A8000601B0228EADBC1E12C4611E02146002050
:102A9000FFF7ADFB002607E039467F1C684A505C13
:102AA00001F009FB701CC6B2802EF5DB601CC4B2BD
:102AB000601B0228EADBA9E12C4611E02146002038
:102AC000FFF795FB002607E039467F1C5D4A505C06
:102AD00001F0F1FA701CC6B2802EF5DB601CC4B2A6
:102AE000601B0228EADB91E12C4611E02146002020
:102AF000FFF77DFB002607E039467F1C524A505CF9
:102B000001F0D9FA701CC6B2802EF5DB601CC4B28D
:102B1000601B0228EADB79E12C4611E02146002007
:102B2000FFF765FB002607E039467F1C474A505CEB
:102B300001F0C1FA701CC6B2802EF5DB601CC4B275
:102B4000601B0228EADB61E12C4611E021460020EF
:102B5000FFF74DFB002607E039467F1C3C4A505CDE
:102B600001F0A9FA701CC6B2802EF5DB601CC4B25D
:102B7000601B0228EADB49E12C4611E021460020D7
:102B8000FFF735FB002607E039467F1C314A505CD1
:102B900001F091FA701CC6B2802EF5DB601CC4B245
:102BA000601B0228EADB31E12C4611E021460020BF
:102BB000FFF71DFB002607E039467F1C264A505CC4
:102BC00001F079FA701CC6B2802EF5DB601CC4B22D
:102BD000601B0228EADB19E12C4611E021460020A7
:102BE000FFF705FB002607E039467F1C1B4A505CB7
:102BF00001F061FA701CC6B2802EF5DB601CC4B215
:102C0000601B0228EADB01E12C463BE0626500081C
:102C1000626600086267000862680008626900086E
:102C2000626A0008626B0008626C0008626D00084E
:102C3000626E0008626F000862700008627100082E
:102C4000627200086273000862740008627500080E
:102C500062760008627700086278000862790008EE
:102C600021460020FFF7C3FA002607E039467F1C03
:102C7000684A505C01F01FFA701CC6B2802EF5DB6A
:102C8000601CC4B2601B0228EADBBFE02C4611E0E6
:102C900021460020FFF7ABFA002607E039467F1CEB
:102CA0005D4A505C01F007FA701CC6B2802EF5DB5D
:102CB000601CC4B2601B0228EADBA7E02C4611E0CE
:102CC00021460020FFF793FA002607E039467F1CD3
:102CD000524A505C01F0EFF9701CC6B2802EF5DB51
:102CE000601CC4B2601B0228EADB8FE02C4611E0B6
:102CF00021460020FFF77BFA002607E039467F1CBB
:102D0000474A505C01F0D7F9701CC6B2802EF5DB43
:102D1000601CC4B2601B0228EADB77E02C4611E09D
:102D200021460020FFF763FA002607E039467F1CA2
:102D30003C4A505C01F0BFF9701CC6B2802EF5DB36
:102D4000601CC4B2601B0228EADB5FE02C4611E085
:102D500021460020FFF74BFA002607E039467F1C8A
:102D6000314A505C01F0A7F9701CC6B2802EF5DB29
:102D7000601CC4B2601B0228EADB47E02C4611E06D
:102D800021460020FFF733FA002607E039467F1C72
:102D9000264A505C01F08FF9701CC6B2802EF5DB1C
:102DA000601CC4B2601B0228EADB2FE02C4611E055
:102DB00021460020FFF71BFA002607E039467F1C5A
:102DC0001B4A505C01F077F9701CC6B2802EF5DB0F
:102DD000601CC4B2601B0228EADB17E02C4611E03D
:102DE00021460020FFF703FA002607E039467F1C42
:102DF000104A505C01F05FF9701CC6B2802EF5DB02
:102E0000601CC4B2601B0228EADB00BF00BFBDE843
:102E1000F0810000627A0008627B0008627C000892
:102E2000627D0008627E0008627F00086280000800
:102E3000628100086282000830B58BB000200790E4
:102E4000089009900A900125FFF752F90F220221FC
:102E50001046FFF7E1F9102202211F20FFF7DCF9ED
:102E6000112202212F20FFF7D7F90D2202213F2046
:102E7000FFF7D2F90E2202214F20FFF7CDF90A22E7
:102E800002215F20FFF7C8F942A345A247A149A04C
:102E900001F018F907A8002102910391CDE904106F
:102EA00000912B023BA201913DA140A0FEF7C8FD7D
:102EB000002855D1089A91B20798FEF751FAFA20E6
:102EC000FEF79CF80446002C46D02046FFF790F809
:102ED000022841D12046FFF76CF8062837D2DFE8F8
:102EE00000F00322262A2E323EA001F0EBF8002546
:102EF000FFF7FEF80D2204211F20FFF78DF90E22A7
:102F000004212F20FFF788F90C2204213F20FFF72E
:102F100083F9122204214F20FFF77EF94FF4FA7053
:102F200001F00CFA17E034A001F0CCF813E039A05E
:102F300001F0C8F80FE040A001F0C4F80BE046A093
:102F400001F0C0F807E04DA001F0BCF803E056A086
:102F500001F0B8F800BF00BF07A8FEF7D9FC02E0F7
:102F600058A001F0AFF81A2204212F20FFF754F9DE
:102F70001B2204213F20FFF74FF91C2206212F209E
:102F8000FFF74AF91D2206213F20FFF745F92846A1
:102F90000BB030BD31303735363439353230000082
:102FA000313233343536373800000000353938399E
:102FB000383800004F6E654E65745F4465764C6925
:102FC0006E6B0D0A50524F49443A2025732C09412B
:102FD0005549463A2025732C0944455649443A251B
:102FE000730D0A00546970733A09C1ACBDD3B3C9FB
:102FF000B9A60D0A000000005741524E3A09C1AC73
:10300000BDD3CAA7B0DCA3BAD0ADD2E9B4EDCEF33C
:103010000D0A00005741524E3A09C1ACBDD3CAA7B0
:10302000B0DCA3BAB7C7B7A8B5C4636C69656E74E2
:1030300069640D0A000000005741524E3A09C1ACC4
:10304000BDD3CAA7B0DCA3BAB7FECEF1C6F7CAA7F4
:10305000B0DC0D0A000000005741524E3A09C1ACE5
:10306000BDD3CAA7B0DCA3BAD3C3BBA7C3FBBBF213
:10307000C3DCC2EBB4EDCEF30D0A00005741524E53
:103080003A09C1ACBDD3CAA7B0DCA3BAB7C7B7A8C9
:10309000C1B4BDD328B1C8C8E7746F6B656EB7C73C
:1030A000B7A8290D0A0000004552523A09C1ACBD2B
:1030B000D3CAA7B0DCA3BACEB4D6AAB4EDCEF30D72
:1030C0000A0000005741524E3A094D5154545F5086
:1030D00061636B6574436F6E6E65637420466169EE
:1030E0006C65640D0A00000010B588B0044620210C
:1030F0006846FDF730F828A12046FDF77AF8202130
:103100006846FDF728F82548027825A1684600F0B2
:10311000E9FF69462046FDF729F820216846FDF7BA
:103120001AF82348027823A1684600F0DBFF6946BD
:103130002046FDF71BF820216846FDF70CF82148D2
:10314000027821A1684600F0CDFF69462046FDF7D0
:103150000DF820216846FCF7FEFF1F4802781FA1EA
:10316000684600F0BFFF69462046FCF7FFFF2021BC
:103170006846FCF7F0FF1D4802781DA1684600F084
:10318000B1FF69462046FCF7F1FF2046FDF716F82F
:10319000C0B208B010BD00002C3B000000000020B1
:1031A00074656D70657261747572652C25643B0081
:1031B0000200002068756D69646974792C25643B90
:1031C00000000000100000204C69676874696E6799
:1031D0002C25643B00000000120000206169722071
:1031E0007175616C6974792C25643B0001000020C5
:1031F00066616E2C25643B002DE9F0418AB0804663
:103200000020069007900890099005900490039084
:1032100000260027002400254046FEF7E9FE06466A
:10322000042E22D00F2E26D103AB05AA04A94046B6
:10323000FEF779FE0746BFB9BDF80C3032A0DDE9D4
:10324000041200F03FFF06AADDE90401FEF7B2FB1D
:1032500050B936A000F036FF079A91B20698FEF7F3
:103260007FF806A8FEF754FB08E04046FEF7B0FEE4
:1032700000B903E000BF4FF0FF3700BF00BFFDF70C
:10328000AFFE781C10B90AB0BDE8F0813A2105986C
:10329000FCF78AFF0446FCB1781CE8B1641C05E029
:1032A00014F8012B28466D1C0DF8002020783028DA
:1032B00002DB20783928F3DD00200DF80500684690
:1032C000FCF7A0FF05461FA10598FCF75BFF50B176
:1032D0001DB901201C49086009E0012D07D100201B
:1032E0001949086003E019A10598FCF74BFF0F2E60
:1032F00001D0032E05D1049801F07AF8059801F069
:1033000077F800BFBFE70000636D6469643A202569
:10331000732C207265713A2025732C207265715FC1
:103320006C656E3A2025640D0A00000054697073C4
:103330003A0953656E6420436D64526573700D0ADB
:103340000000000066616E00B401224220202000CF
:1033500030B5A5B000202190229023902490002425
:103360000025802101A8FCF7F6FE01A8FFF7BCFEAE
:103370000446002C20D021A80523002221460090DD
:103380000EA0FEF77FFDA0B908E001A8415D229ADA
:10339000501C229021988154681C05B2A542F4DB90
:1033A000229A91B22198FDF7DBFF21A8FEF7B0FA2F
:1033B00002E005A000F086FE25B030BD3130373583
:1033C00036343935323000005741524E3A094544BF
:1033D000505F4E6577427566666572204661696C1E
:1033E00065640D0A000000007047000001460020DF
:1033F000034A506820F44040084350607047000082
:103400000010024029B1064A52690243044B5A6136
:1034100004E0034A52698243014B5A61704700003D
:103420000010024029B1064AD2690243044BDA6116
:1034300004E0034AD2698243014BDA61704700001D
:103440000010024029B1064A12690243044B1A6176
:1034500004E0034A12698243014B1A61704700007D
:103460000010024029B1064A92690243044B9A6156
:1034700004E0034A92698243014B9A61704700005D
:103480000010024030B500210022002400232D4D01
:103490006D6805F00C0121B1042905D0082923D15C
:1034A00005E0294D056022E0274D05601FE0254D10
:1034B0006D6805F47012234D6D6805F480340225A3
:1034C00005EB92421CB9214D554305600BE01D4DA3
:1034D0006D6805F400351DB11C4D5543056002E0D3
:1034E000194D5543056002E0174D056000BF00BF50
:1034F000144D6D6805F0F0010909154D6B5C056808
:10350000DD4045600F4D6D6805F4E061090A104D1E
:103510006B5C4568DD4085600A4D6D6805F460515F
:10352000C90A0B4D6B5C4568DD40C560054D6D6893
:1035300005F44041890B074D6B5CC568B5FBF3F59D
:10354000056130BD0010024000127A0000093D0004
:103550003A0000204A000020704710B500F002F841
:1035600010BD00000CB500200190009033480068A9
:1035700040F480303149086000BF3048006800F4F2
:10358000003000900198401C0190009818B90198F3
:10359000B0F5A06FF1D12948006800F4003010B1F7
:1035A0000120009001E0002000900098012843D104
:1035B0002348006840F01000214908600846006870
:1035C00020F0030008600846006840F00200086030
:1035D0001A484068194948600846406848600846EB
:1035E000406840F4806048600846406820F47C10E1
:1035F00048600846406840F4E810486008460068A3
:1036000040F08070086000BF0C48006800F0007057
:103610000028F9D00948406820F0030007494860B5
:103620000846406840F00200486000BF0348406818
:1036300000F00C000828F9D10CBD00000010024079
:1036400000200240042808D14FF0E021096941F030
:1036500004014FF0E022116107E04FF0E021096919
:1036600021F004014FF0E0221161704710B51348BA
:10367000006840F0010011490860084640681049A0
:1036800008400E494860084600680E4908400B494A
:1036900008600846006820F48020086008464068FA
:1036A00020F4FE0048604FF41F008860FFF755FFCC
:1036B0004FF000600449086010BD00000010024097
:1036C0000000FFF8FFFFF6FE08ED00E0F0B50C4645
:1036D000154600220021068C4FF6FE773E400684F8
:1036E000028B018C4FF60C7632407E1C06EA0316E4
:1036F0002E433243104EB0420ED0104EB0420BD08B
:10370000B0F1804F08D00E4EB04205D00D4EB04201
:1037100002D00D4EB04206D14FF6FD76314044F056
:103720000106314305E04FF6F576314044F00106DD
:10373000314302830184F0BD002C0140003401407C
:103740000004004000080040000C0040F0B50C46AA
:103750001546002200210026078C4FF6EF7C07EA71
:103760000C070784028B018C4FF6FF7707EA0416DB
:1037700040F6FF473A404FF6FF7707EA03373A43F0
:103780004FF6FF7707EA05273A43114FB8420ED0AC
:10379000104FB8420BD0B0F1804F08D00E4FB84256
:1037A00005D00E4FB84202D00D4FB84206D14FF6A9
:1037B000DF77394046F01007394305E04FF65F7771
:1037C000394044F01007394302830184F0BD000002
:1037D000002C01400034014000040040000800407B
:1037E000000C0040F0B50C461546002200210026D2
:1037F000078C4FF6FF6C07EA0C070784828B018C5D
:103800004FF6FF7707EA04264FF60C773A404FF65B
:10381000FF7707EA03172F433A43114FB8420ED000
:10382000104FB8420BD0B0F1804F08D00E4FB842C5
:1038300005D00E4FB84202D00D4FB84206D14FF618
:10384000FF57394046F48077394305E04FF2FF5780
:10385000394044F48077394382830184F0BD00000D
:10386000002C0140003401400004004000080040EA
:10387000000C0040F0B50C46154600220021002641
:10388000078C4EF6FF7C07EA0C070784828B018CBD
:103890004FF6FF7707EA043640F6FF473A404FF607
:1038A000FF7707EA05273A434FF6FF7707EA033722
:1038B0003A43114FB8420ED0104FB8420BD0B0F17E
:1038C000804F08D00E4FB84205D00E4FB84202D0FC
:1038D0000D4FB84206D14DF6FF77394046F4805778
:1038E000394305E047F6FF57394044F480573943E0
:1038F00082830184F0BD0000002C014000340140AF
:103900000004004000080040000C004010B52D48A5
:10391000007800F0800000284FD10121880700F0D6
:10392000B3F8D0B12748007800F04000A8B125488E
:10393000007800F03F003F280AD12248007840F08C
:103940008000204908704FF6FF701F49088004E08E
:103950001C480078401C1B4908700421080700F02F
:1039600093F850B31748007800F0400088B115482C
:10397000007840F08000134908704FF0804000F05C
:1039800080F81149088000214FF0804000F0EDF8E8
:1039900013E000200B4908700B49088000214FF00C
:1039A000804000F0EFF80748007840F040000549FB
:1039B00008700221480700F0D8F80521880700F0B8
:1039C00051F810BDDE090020E009002010B50121EA
:1039D000044800F059F818B10121024800F042F8FB
:1039E00010BD0000000400407FB505460C460121D3
:1039F0000220FFF717FDADF80850ADF80440002095
:103A0000ADF80A00ADF8060001A90E4800F0E8F88C
:103A1000012211460B4800F09FF81D208DF8000090
:103A200000208DF8010003208DF8020001208DF8A0
:103A300003006846FEF71AFB0121024800F015F862
:103A40007FBD00000004004010B50121044800F0D3
:103A50001BF818B10121024800F004F810BD000065
:103A600000080040CA430282704721B1028842F038
:103A70000102028004E002884FF6FE731A400280C1
:103A800070470146088F704730B50246002000237A
:103A90000024158A05EA0103958905EA010413B19A
:103AA0000CB1012000E0002030BD000070B50546DB
:103AB0000C46244885420ED0234885420BD0B5F1F0
:103AC000804F08D02148854205D02148854202D048
:103AD0002048854200D100E000BF208850B92389EA
:103AE000A28861882846FFF7F1FDE188284600F0AA
:103AF0004BF825E0208804280AD12389A288618810
:103B00002846FFF723FEE188284600F046F817E034
:103B1000208808280AD12389A28861882846FFF7CF
:103B200061FEE188284600F045F809E02389A28873
:103B300061882846FFF79EFEE188284600F043F89A
:103B400070BD0000002C0140003401400004004022
:103B500000080040000C00401AB183890B438381A8
:103B600002E083898B43838170470A460021018CE0
:103B70004FF6DF7319404FF6FF7303EA0213194340
:103B80000184704781847047028B4FF6F3731A40AB
:103B90000283028B0A4302837047028B4FF2FF338A
:103BA0001A400283028B4FF6FF7303EA01231A4384
:103BB00002837047828B4FF6F3731A408283828BA5
:103BC0000A4382837047828B4FF2FF331A4082830D
:103BD000828B4FF6FF7303EA01231A4382837047F7
:103BE000002202881D4B98420ED01D4B98420BD0EC
:103BF000B0F1804F08D01B4B984205D01A4B984229
:103C000002D01A4B984204D14FF68F731A404B885A
:103C10001A43174B984207D0164B984204D04FF6E0
:103C2000FF431A40CB881A4302808B8883850B8818
:103C300003850A4B98420BD0094B984208D00E4B93
:103C4000984205D00D4B984202D00D4B984201D1BD
:103C50000B7A03860123838270470000002C014009
:103C6000003401400004004000080040000C004007
:103C7000001000400014004000400140004401409A
:103C80000048014010B540F225511D4800F086F86B
:103C900010B31B4800F03EF9C4B21A48008800F483
:103CA0000040C8B91748008800F4804060B10A2C71
:103CB00003D000201349088020E01248008840F417
:103CC00000401049088019E00D2C06D10D480088ED
:103CD00040F480400B49088010E00A480088C0F397
:103CE0000D0009490C5407480088401C054908800C
:103CF00008460088C72801DD0020088010BD0000AC
:103D00000038014038000020680A002010B540F259
:103D100025510E4800F042F8B0B10D4800888028C7
:103D200002D300200A4908800848001D0088C1B25B
:103D3000074802880088401C054B188005488154BC
:103D40002021024800F008F810BD000000440040A7
:103D50004E000020300B002001F40072B2F5007F0D
:103D600000D100BFCA430280704721B1828942F46A
:103D70000052828104E082894DF6FF731A408281ED
:103D8000704702460020B1F5007F00D100BF1388C4
:103D90000B400BB1012000E00020704770B50246D7
:103DA000002400230025002040F66A16B14200D10D
:103DB00000BFC1F3421501F01F03012606FA03F309
:103DC000012D02D19689334006E0022D02D1168AD8
:103DD000334001E0968A33400C12012606FA04F4BF
:103DE0001688344013B10CB1012000E0002070BDF2
:103DF000F0B50346002400260025002040F66A178F
:103E0000B94200D100BF1846C1F3421401F01F06A9
:103E1000012707FA06F5012C01D10C3004E0022C31
:103E200001D1103000E014301AB107682F43076049
:103E300002E00768AF430760F0BD00002DE9F047DE
:103E400086B005460E460024A24600BFA1460027C4
:103E5000B08900B100BF2F462C8A4CF6FF70044099
:103E6000F08804432C82AC894EF6F3100440B088ED
:103E700031890843718908430443AC81AC8A4FF609
:103E8000FF400440B0890443AC8201A8FFF7FAFA6E
:103E90001F48874202D1DDF810A001E0DDF80CA038
:103EA000A88900F4004040B10AEBCA0000EB0A10F8
:103EB00031684900B0FBF1F807E00AEBCA0000EBFB
:103EC0000A1031688900B0FBF1F86420B8FBF0F00B
:103ED00004012009642101FB1089A88900F4004035
:103EE00040B1322000EBC900B0FBF1F000F0070058
:103EF000044308E0322000EB09106421B0FBF1F02C
:103F000000F00F0004432C8106B0BDE8F0870000EC
:103F10000038014001468888C0F308007047C1F3AB
:103F200008028280704700BFFEE7000010B586B02F
:103F30000446012144F20400FFF794FA4FF40070A4
:103F4000ADF8140003208DF8160018208DF8170026
:103F500005A91C48FDF740FA4FF48060ADF8140045
:103F600004208DF8170005A91648FDF735FA25201D
:103F70008DF8000003208DF801008DF8020001206B
:103F80008DF803006846FEF771F801940020ADF843
:103F90000800ADF80A00ADF80C00ADF810000C20D8
:103FA000ADF80E0001A90848FFF748FF012240F2D2
:103FB00025510548FFF71CFF01210348FFF7D5FEF7
:103FC00006B010BD000801400038014010B586B0B1
:103FD000044601210420FFF745FA01214804FFF7B8
:103FE00021FA18208DF817000420ADF814000320E2
:103FF0008DF8160005A91E48FDF7EEF904208DF88E
:1040000017000820ADF8140003208DF8160005A94C
:104010001748FDF7E1F901940020ADF810000C20DD
:10402000ADF80E000020ADF80C00ADF80A00ADF8B8
:10403000080001A90F48FFF701FF01210D48FFF714
:1040400094FE012240F225510A48FFF7D1FE2620B6
:104050008DF8000001208DF8030000208DF801008C
:104060008DF802006846FEF701F806B010BD0000AA
:10407000000801400044004070B504460D4600268B
:104080000DE014F8011B0748FFF749FF00BF40216E
:104090000448FFF776FE0028F9D0701C86B2AE42C5
:1040A000EFDB70BD0044004010B5044621460020FF
:1040B000FDF7CCFB10BD10B5044621464020FDF7AE
:1040C000C5FB10BD0FB4054B10B503A9044A0298F7
:1040D00000F030F810BC5DF814FB0000D543000878
:1040E000340000200FB4084B10B504A902AA0398AD
:1040F00000F020F8044602A9002000F0F7F820465E
:1041000010BC5DF814FB0000ED4200080048704749
:10411000EC09002002E008C8121F08C1002AFAD1E9
:1041200070477047002001E001C1121F002AFBD137
:10413000704700002DE9FF4F8BB09A460F460546A9
:10414000002606E025280BD052460D9990476D1C9D
:10415000761C28780028F5D10FB03046BDE8F08FE6
:104160000024A0460122604900E0044315F8013F05
:10417000203B02FA03F00842F7D128782E2817D105
:1041800015F8010F44F004042A280ED06FF02F0216
:104190002878A0F1300109290AD808EB880102EB40
:1041A000410100EB01086D1CF2E757F8048B6D1C10
:1041B000287869283ED006DC0028CDD063280BD0B3
:1041C000642804D136E0732810D075284BD05246AD
:1041D0000D999047761C85E017F8040B8DF80000C8
:1041E00000208DF80100E946012003E057F8049B08
:1041F0004FF0FF3061074FF0000401D40AE0641C67
:1042000044450DDA8442FADB19F804100029F6D18E
:1042100006E0641C8442FCDB19F804100029F8D184
:10422000264404E019F8010B52460D999047641E8C
:10423000F8D257E001CF4FF00A0B002802DA4042D3
:104240002D2102E0210504D52B218DF82410012118
:1042500003E0E10705D02021F7E70DF120090891DF
:104260000CE00021F9E701CF4FF00A0BF9E75946BE
:10427000FCF7D4F901F1300209F8012D0028F6D13C
:10428000ADEB090000F1200B600701D44FF00108ED
:10429000D84502DDA8EB0B0000E00020804600249A
:1042A00006E009A85246005D0D999047641C761CF3
:1042B00008988442F5DB04E0302052460D9990477F
:1042C000761CB8F10001A8F10108F5DC05E019F849
:1042D000010B52460D999047761CBBF10001ABF1E2
:1042E000010BF4DC6D1C34E7092801000A68531C3B
:1042F0000B6010707047000010B56FF00400FFF7FE
:10430000A1F90A4800680A49B0FBF1F009490870B0
:104310000846007800EB4001C1EBC0104FF6FF717A
:1043200001EAC0000449088010BD00001C00002004
:1043300000127A0030000020320000200146114AAD
:1043400012884A434FF0E0235A6100229A611A46CC
:10435000126942F001021A6100BF4FF0E0221069B9
:1043600000F001021AB100F48032002AF5D04FF0BB
:10437000E022126922F001024FF0E0231A610022CC
:104380009A617047320000200146114A12784A4370
:104390004FF0E0235A6100229A611A46126942F0F6
:1043A00001021A6100BF4FF0E022106900F0010223
:1043B0001AB100F48032002AF5D04FF0E0221269E1
:1043C00022F001024FF0E0231A6100229A61704747
:1043D0003000002000BF054A128802F04002002A87
:1043E000F9D0C2B2014B1B1D1A8070470038014042
:1043F00010B5002821D0114B0022001F196803E0DE
:10440000814203D80A4649680029F9D152B113689C
:10441000841A9C4204D1006818441060104602E0DF
:10442000506000E0186039B102680B1A934203D162
:104430000B681A4402604968416010BDE40900201D
:104440001CB500244FF496794FF4A060FDF746FEAA
:10445000FFF752FF4FF41650FFF768FD4FF4E130BD
:10446000FFF7B4FDFDF738FAFDF764FE4FF4E151B4
:104470004FF4FA60FFF7B8FA47214FF6FF70FDF7E7
:104480003FF8FCF73BFCFCF763FBFCF7EFFBFCF7AA
:10449000DDFD4FF4FA70FFF751FF03E04FF4FA70BF
:1044A000FFF74CFFFEF7C8FC0028F7D187490860EA
:1044B00000F090F909E186498648FCF772FCB8B92A
:1044C0008448027884A18548FFF70CFE8048027872
:1044D00083A18548FFF706FE0223804A00212020A1
:1044E000FDF7C4FE0223804A19462020FDF7BEFED8
:1044F00000207E4908807E4908807E4908807E49E8
:10450000088027E0794801880088401C774A10809D
:104510007A4830F8110076490988084474490880BF
:10452000104601880088401C1080744830F8110043
:104530007049098808446F4908801046018800883E
:10454000401C10806D4830F811006B490988084400
:1045500069490880654800881E28D3DB64490988BA
:104560000A2291FBF2F1C1F58051642201FB02F0B5
:10457000C11700EB1151C1F30731614A11705E4858
:1045800000880A2190FBF1FB5846FBF7D0FF8246DA
:10459000FBF7FCFF07464FF066325A4BFBF7E6FE8F
:1045A0000546FCF71FF8584908600020504908806C
:1045B000504908805049088053480068FBF7E6FFDF
:1045C0000546524A524BFBF7F5FF21D24E48006890
:1045D000FBF7DCFF07464F4A4F4BFBF739FF054619
:1045E000FBF7BBFF4D49088008460088FBF7A8FF92
:1045F00007464B4A4B4BFBF7B9FE0546FBF7ADFFB1
:10460000494908700846017848A0FFF75BFD21E0A2
:104610003D480068FBF7BAFF05463C4A3C4BFBF7B8
:104620009FFE0746464A474BFBF712FF8246002291
:10463000454BFBF79BFECDE90001FBF78EFF3A49A6
:10464000087008460078093008700846017837A0DD
:10465000FFF738FD2A4802783CA13E48FFF742FDAB
:10466000314802783CA13E48FFF73CFD0223394A1D
:1046700004212020FDF7FAFD0223394A06214020BB
:10468000FDF7F4FD284800783C2803DA012035497D
:10469000086002E00020334908600A20FFF74EFE60
:1046A00009F101001FFA80F9B9F5967F05DB4FF09B
:1046B0000009FEF74DFEFCF793FC0020FCF79EFC82
:1046C000044614B12046FEF797FDF4E6B4012242F9
:1046D00002000020000000203A2564002C0A00207F
:1046E0003A25642525524800360A00201A00002089
:1046F000040000200600002008000020F00900202F
:104700001000002066664A3F14000020CDCCCCCCBF
:10471000CCCCEC3FFCA9F1D24D62503F0A00002006
:10472000FA7E6ABC7493883F12000020D2BBD1F598
:10473000BBAFCCBCC5A8B6C83A256470706D0A0082
:104740009A9999999999B93F000059403A25642559
:1047500025000000400A00203A25642020200000A7
:10476000540A002094012142F0B50B30154D20F081
:1047700007010024144A0FE003688B420BD38B42DD
:1047800005D95E1A43184768C3E9006700E043682B
:10479000136002C004E0021D10680028ECD120461E
:1047A000002802D1286808B10020F0BD064A074859
:1047B0001060074A121A22F00702C0E90024012003
:1047C0002860D7E7E8090020E4090020B40B0020A6
:1047D000B00D002010B5FDF78BFC02220021084629
:1047E000FDF71AFD042200211020FDF715FD2722F8
:1047F00000214120FDF710FD032202210020FDF7DA
:104800000BFD042202211020FDF706FD05220421E4
:104810000020FDF701FD062204211020FDF7FCFC1D
:10482000282206210020FDF7F7FC2922062110206E
:10483000FDF7F2FC2A2206212020FDF7EDFC2B22B9
:1048400006213020FDF7E8FC10BD0000000000004C
:104850000000002F000000000700070000147F1474
:104860007F1400242A7F2A12006264081323003672
:104870004955225000000503000000001C224100A1
:10488000000041221C000014083E08140008083EE5
:104890000808000000A060000008080808080000E0
:1048A00060600000002010080402003E5149453EAF
:1048B0000000427F400000426151494600214145CD
:1048C0004B31001814127F10002745454539003C34
:1048D0004A49493000017109050300364949493602
:1048E00000064949291E00003636000000005636F1
:1048F00000000008142241000014141414140000D5
:104900004122140800020151090600324959513E62
:10491000007C1211127C007F49494936003E41411A
:104920004122007F4141221C007F49494941007FCB
:1049300009090901003E4149497A007F0808087FBA
:104940000000417F4100002040413F01007F0814EA
:104950002241007F40404040007F020C027F007FE8
:104960000408107F003E4141413E007F09090906CD
:10497000003E4151215E007F091929460046494900
:1049800049310001017F0101003F4040403F001FCD
:104990002040201F003F4038403F0063140814634C
:1049A00000070870080700615149454300007F4136
:1049B000410000552A552A55000041417F0000045E
:1049C0000201020400404040404000000102040097
:1049D000002054545478007F4844443800384444FC
:1049E000442000384444487F003854545418000888
:1049F0007E0901020018A4A4A47C007F08040478A6
:104A00000000447D4000004080847D00007F10282D
:104A100044000000417F4000007C04180478007CC2
:104A20000804047800384444443800FC2424241842
:104A30000018242418FC007C08040408004854547E
:104A4000542000043F444020003C4040207C001C97
:104A50002040201C003C4030403C004428102844AA
:104A6000001CA0A0A07C004464544C4414141414F2
:104A7000141400000000000000000000000000000E
:104A80000000000000F800000000000000333000CB
:104A9000000000100C06100C0600000000000000D2
:104AA000000040C07840C0784000043F04043F0448
:104AB0000400007088FC08300000001820FF211E50
:104AC0000000F008F000E018000000211C031E2187
:104AD0001E0000F00888700000001E212324192702
:104AE000211010160E000000000000000000000061
:104AF0000000000000E01804020000000007182079
:104B0000400000020418E0000000004020180700E8
:104B10000000404080F0804040000202010F01028E
:104B20000200000000F0000000000101011F01016F
:104B30000100000000000000000080B070000000D4
:104B40000000000000000000000000010101010160
:104B500001010000000000000000003030000000F3
:104B600000000000000080601804006018060100CA
:104B7000000000E010080810E000000F10202010D6
:104B80000F00001010F8000000000020203F20203F
:104B900000000070080808887000003028242221D6
:104BA000300000300888884830000018202020118C
:104BB0000E000000C02010F8000000070424243F6D
:104BC000240000F808888808080000192120201116
:104BD0000E0000E0108888180000000F112020113E
:104BE0000E0000380808C83808000000003F000028
:104BF00000000070880808887000001C2221212213
:104C00001C0000E010080810E00000003122221112
:104C10000F00000000C0C0000000000000303000A5
:104C20000000000000800000000000008060000024
:104C3000000000008040201008000001020408105D
:104C4000200040404040404040000404040404046C
:104C5000040000081020408000000020100804021A
:104C60000100007048080808F0000000003036011C
:104C70000000C030C828E810E000071827242314DB
:104C80000B000000C038E0000000203C2302022797
:104C9000382008F8888888700000203F20202011E4
:104CA0000E00C0300808080838000718202020101F
:104CB000080008F808080810E000203F2020201015
:104CC0000F0008F88888E8081000203F20202320E3
:104CD000180008F88888E8081000203F200003002A
:104CE0000000C03008080838000007182020221EE5
:104CF000020008F808000008F808203F21010121FF
:104D00003F20000808F8080800000020203F20206D
:104D1000000000000808F8080800C08080807F00BC
:104D2000000008F888C028180800203F2001263815
:104D3000200008F8080000000000203F202020206C
:104D4000300008F8F800F8F80800203F003F003F66
:104D5000200008F830C00008F808203F200007189D
:104D60003F00E01008080810E0000F10202020107D
:104D70000F0008F808080808F000203F2101010191
:104D80000000E01008080810E0000F182424385034
:104D90004F0008F8888888887000203F2000030CA6
:104DA00030200070880808083800003820212122AF
:104DB0001C00180808F8080818000000203F200010
:104DC000000008F808000008F808001F2020202034
:104DD0001F000878880000C83808000007380E0156
:104DE0000000F80800F80008F800033C0700073C42
:104DF0000300081868808068180820302C03032CF2
:104E000030200838C800C83808000000203F2000C3
:104E1000000010080808C838080020382621202083
:104E20001800000000FE020202000000007F404067
:104E30004000000C30C000000000000000010638F7
:104E4000C00000020202FE000000004040407F005F
:104E50000000000004020202040000000000000044
:104E60000000000000000000000080808080808042
:104E7000808000020204000000000000000000002A
:104E8000000000008080808000000019242222227F
:104E90003F2008F8008080000000003F1120201112
:104EA0000E000000008080800000000E11202020F5
:104EB0001100000000808088F800000E11202010F2
:104EC0003F200000808080800000001F22222222DC
:104ED0001300008080F0888888180020203F202060
:104EE00000000000808080808000006B9494949388
:104EF000600008F8008080800000203F2100002032
:104F00003F2000809898000000000020203F2020D3
:104F10000000000000809898000000C08080807F22
:104F2000000008F8000080808000203F24022D301F
:104F30002000000808F8000000000020203F20208A
:104F400000008080808080808000203F20003F2003
:104F5000003F8080008080800000203F21000020F2
:104F60003F200000808080800000001F2020202043
:104F70001F00808000808000000080FFA1202011A1
:104F80000E000000008080808000000E112020A014
:104F9000FF80808080008080800020203F212000D2
:104FA00001000000808080808000003324242424BD
:104FB0001900008080E0808000000000001F202099
:104FC00000008080000000808000001F2020201052
:104FD0003F20808080000080808000010E30080625
:104FE000010080800080008080800F300C030C3036
:104FF0000F0000808000808080000020312E0E3164
:105000002000808080000080808080818E70180663
:10501000010000808080808080000021302C2221CF
:10502000300000000000807C020200000000003F11
:10503000404000000000FF00000000000000FF00F2
:1050400000000002027C800000000040403F0000A1
:10505000000000060101020204040000000000003C
:105060000000000000000000F0FC0EE7F303030363
:105070000303030303030303030303030303030300
:1050800003030303030303030303030303030303F0
:1050900003030303030303030303030303030303E0
:1050A00003030303030303030303030303030303D0
:1050B00003030303030303030303030303030303C0
:1050C00003030303030303030303030303030303B0
:1050D0000303030303030303070EFCF000000000B7
:1050E00000000000000000000F3F70E7CFC0C0C00C
:1050F000C0C0C0C0C0C0C0C0C0C0C0C0C0C0C0C0B0
:10510000C0C0C0C0C0C0C0C0C0C0C0C0C0C0C0C09F
:10511000C0C0C0C0C0C0C0C0C0C0C0C0C0C0C0C08F
:10512000C0C0C0C0C0C0C0C0C0C0C0C0C0C0C0C07F
:10513000C0C0C0C0C0C0C0C0C0C0C0C0C0C0C0C06F
:10514000C0C0C0C0C0C0C0C0C0C0C0C0C0C0C0C05F
:10515000C0C0C0C0C0C0C0C0E0703F0F00000000B1
:105160000000000000000000F0FC0EE7F3F3030372
:1051700003030303030303030303030303030303FF
:1051800003030303030303030303030303030303EF
:1051900003030303030303030303030303030303DF
:1051A00003030303030303030303030303030303CF
:1051B00003030303030303030303030303030303BF
:1051C00003030303030303030303030303030303AF
:1051D0000303030303030303070EFCF000000000B6
:1051E00000000000000000000F3F70E7CFCFC0C0FC
:1051F000C0C0C0C0C0C0C0C0C0C0C0C0C0C0C0C0AF
:10520000C0C0C0C0C0C0C0C0C0C0C0C0C0C0C0C09E
:10521000C0C0C0C0C0C0C0C0C0C0C0C0C0C0C0C08E
:10522000C0C0C0C0C0C0C0C0C0C0C0C0C0C0C0C07E
:10523000C0C0C0C0C0C0C0C0C0C0C0C0C0C0C0C06E
:10524000C0C0C0C0C0C0C0C0C0C0C0C0C0C0C0C05E
:10525000C0C0C0C0C0C0C0C0E0703F0F00000000B0
:105260000000000000000000F0FC0EE7F3F3F30381
:1052700003030303030303030303030303030303FE
:1052800003030303030303030303030303030303EE
:1052900003030303030303030303030303030303DE
:1052A00003030303030303030303030303030303CE
:1052B00003030303030303030303030303030303BE
:1052C00003030303030303030303030303030303AE
:1052D0000303030303030303070EFCF000000000B5
:1052E00000000000000000000F3F70E7CFCFCFC0EC
:1052F000C0C0C0C0C0C0C0C0C0C0C0C0C0C0C0C0AE
:10530000C0C0C0C0C0C0C0C0C0C0C0C0C0C0C0C09D
:10531000C0C0C0C0C0C0C0C0C0C0C0C0C0C0C0C08D
:10532000C0C0C0C0C0C0C0C0C0C0C0C0C0C0C0C07D
:10533000C0C0C0C0C0C0C0C0C0C0C0C0C0C0C0C06D
:10534000C0C0C0C0C0C0C0C0C0C0C0C0C0C0C0C05D
:10535000C0C0C0C0C0C0C0C0E0703F0F00000000AF
:105360000000000000000000F0FC0EE7F3F3F3F390
:1053700003030303030303030303030303030303FD
:1053800003030303030303030303030303030303ED
:1053900003030303030303030303030303030303DD
:1053A00003030303030303030303030303030303CD
:1053B00003030303030303030303030303030303BD
:1053C00003030303030303030303030303030303AD
:1053D0000303030303030303070EFCF000000000B4
:1053E00000000000000000000F3F70E7CFCFCFCFDC
:1053F000C0C0C0C0C0C0C0C0C0C0C0C0C0C0C0C0AD
:10540000C0C0C0C0C0C0C0C0C0C0C0C0C0C0C0C09C
:10541000C0C0C0C0C0C0C0C0C0C0C0C0C0C0C0C08C
:10542000C0C0C0C0C0C0C0C0C0C0C0C0C0C0C0C07C
:10543000C0C0C0C0C0C0C0C0C0C0C0C0C0C0C0C06C
:10544000C0C0C0C0C0C0C0C0C0C0C0C0C0C0C0C05C
:10545000C0C0C0C0C0C0C0C0E0703F0F00000000AE
:105460000000000000000000F0FC0EE7F3F3F3F38F
:10547000F30303030303030303030303030303030C
:1054800003030303030303030303030303030303EC
:1054900003030303030303030303030303030303DC
:1054A00003030303030303030303030303030303CC
:1054B00003030303030303030303030303030303BC
:1054C00003030303030303030303030303030303AC
:1054D0000303030303030303070EFCF000000000B3
:1054E00000000000000000000F3F70E7CFCFCFCFDB
:1054F000CFC0C0C0C0C0C0C0C0C0C0C0C0C0C0C09D
:10550000C0C0C0C0C0C0C0C0C0C0C0C0C0C0C0C09B
:10551000C0C0C0C0C0C0C0C0C0C0C0C0C0C0C0C08B
:10552000C0C0C0C0C0C0C0C0C0C0C0C0C0C0C0C07B
:10553000C0C0C0C0C0C0C0C0C0C0C0C0C0C0C0C06B
:10554000C0C0C0C0C0C0C0C0C0C0C0C0C0C0C0C05B
:10555000C0C0C0C0C0C0C0C0E0703F0F00000000AD
:105560000000000000000000F0FC0EE7F3F3F3F38E
:10557000F3F303030303030303030303030303031B
:1055800003030303030303030303030303030303EB
:1055900003030303030303030303030303030303DB
:1055A00003030303030303030303030303030303CB
:1055B00003030303030303030303030303030303BB
:1055C00003030303030303030303030303030303AB
:1055D0000303030303030303070EFCF000000000B2
:1055E00000000000000000000F3F70E7CFCFCFCFDA
:1055F000CFCFC0C0C0C0C0C0C0C0C0C0C0C0C0C08D
:10560000C0C0C0C0C0C0C0C0C0C0C0C0C0C0C0C09A
:10561000C0C0C0C0C0C0C0C0C0C0C0C0C0C0C0C08A
:10562000C0C0C0C0C0C0C0C0C0C0C0C0C0C0C0C07A
:10563000C0C0C0C0C0C0C0C0C0C0C0C0C0C0C0C06A
:10564000C0C0C0C0C0C0C0C0C0C0C0C0C0C0C0C05A
:10565000C0C0C0C0C0C0C0C0E0703F0F00000000AC
:105660000000000000000000F0FC0EE7F3F3F3F38D
:10567000F3F3F3030303030303030303030303032A
:1056800003030303030303030303030303030303EA
:1056900003030303030303030303030303030303DA
:1056A00003030303030303030303030303030303CA
:1056B00003030303030303030303030303030303BA
:1056C00003030303030303030303030303030303AA
:1056D0000303030303030303070EFCF000000000B1
:1056E00000000000000000000F3F70E7CFCFCFCFD9
:1056F000CFCFCFC0C0C0C0C0C0C0C0C0C0C0C0C07D
:10570000C0C0C0C0C0C0C0C0C0C0C0C0C0C0C0C099
:10571000C0C0C0C0C0C0C0C0C0C0C0C0C0C0C0C089
:10572000C0C0C0C0C0C0C0C0C0C0C0C0C0C0C0C079
:10573000C0C0C0C0C0C0C0C0C0C0C0C0C0C0C0C069
:10574000C0C0C0C0C0C0C0C0C0C0C0C0C0C0C0C059
:10575000C0C0C0C0C0C0C0C0E0703F0F00000000AB
:105760000000000000000000F0FC0EE7F3F3F3F38C
:10577000F3F3F3F303030303030303030303030339
:1057800003030303030303030303030303030303E9
:1057900003030303030303030303030303030303D9
:1057A00003030303030303030303030303030303C9
:1057B00003030303030303030303030303030303B9
:1057C00003030303030303030303030303030303A9
:1057D0000303030303030303070EFCF000000000B0
:1057E00000000000000000000F3F70E7CFCFCFCFD8
:1057F000CFCFCFCFC0C0C0C0C0C0C0C0C0C0C0C06D
:10580000C0C0C0C0C0C0C0C0C0C0C0C0C0C0C0C098
:10581000C0C0C0C0C0C0C0C0C0C0C0C0C0C0C0C088
:10582000C0C0C0C0C0C0C0C0C0C0C0C0C0C0C0C078
:10583000C0C0C0C0C0C0C0C0C0C0C0C0C0C0C0C068
:10584000C0C0C0C0C0C0C0C0C0C0C0C0C0C0C0C058
:10585000C0C0C0C0C0C0C0C0E0703F0F00000000AA
:105860000000000000000000F0FC0EE7F3F3F3F38B
:10587000F3F3F3F3F3F30303030303030303030358
:1058800003030303030303030303030303030303E8
:1058900003030303030303030303030303030303D8
:1058A00003030303030303030303030303030303C8
:1058B00003030303030303030303030303030303B8
:1058C00003030303030303030303030303030303A8
:1058D0000303030303030303070EFCF000000000AF
:1058E00000000000000000000F3F70E7CFCFCFCFD7
:1058F000CFCFCFCFCFCFC0C0C0C0C0C0C0C0C0C04E
:10590000C0C0C0C0C0C0C0C0C0C0C0C0C0C0C0C097
:10591000C0C0C0C0C0C0C0C0C0C0C0C0C0C0C0C087
:10592000C0C0C0C0C0C0C0C0C0C0C0C0C0C0C0C077
:10593000C0C0C0C0C0C0C0C0C0C0C0C0C0C0C0C067
:10594000C0C0C0C0C0C0C0C0C0C0C0C0C0C0C0C057
:10595000C0C0C0C0C0C0C0C0E0703F0F00000000A9
:105960000000000000000000F0FC0EE7F3F3F3F38A
:10597000F3F3F3F3F3F3F3F3030303030303030377
:1059800003030303030303030303030303030303E7
:1059900003030303030303030303030303030303D7
:1059A00003030303030303030303030303030303C7
:1059B00003030303030303030303030303030303B7
:1059C00003030303030303030303030303030303A7
:1059D0000303030303030303070EFCF000000000AE
:1059E00000000000000000000F3F70E7CFCFCFCFD6
:1059F000CFCFCFCFCFCFCFCFC0C0C0C0C0C0C0C02F
:105A0000C0C0C0C0C0C0C0C0C0C0C0C0C0C0C0C096
:105A1000C0C0C0C0C0C0C0C0C0C0C0C0C0C0C0C086
:105A2000C0C0C0C0C0C0C0C0C0C0C0C0C0C0C0C076
:105A3000C0C0C0C0C0C0C0C0C0C0C0C0C0C0C0C066
:105A4000C0C0C0C0C0C0C0C0C0C0C0C0C0C0C0C056
:105A5000C0C0C0C0C0C0C0C0E0703F0F00000000A8
:105A60000000000000000000F0FC0EE7F3F3F3F389
:105A7000F3F3F3F3F3F3F3F3F3F303030303030396
:105A800003030303030303030303030303030303E6
:105A900003030303030303030303030303030303D6
:105AA00003030303030303030303030303030303C6
:105AB00003030303030303030303030303030303B6
:105AC00003030303030303030303030303030303A6
:105AD0000303030303030303070EFCF000000000AD
